{"contracts/AMM.sol":{"AMM":{"abi":[{"inputs":[{"internalType":"contract Token","name":"_token1","type":"address"},{"internalType":"contract Token","name":"_token2","type":"address"}],"stateMutability":"nonpayable","type":"constructor"},{"anonymous":false,"inputs":[{"indexed":false,"internalType":"address","name":"user","type":"address"},{"indexed":false,"internalType":"address","name":"tokenGive","type":"address"},{"indexed":false,"internalType":"uint256","name":"tokenGiveAmount","type":"uint256"},{"indexed":false,"internalType":"address","name":"tokenGet","type":"address"},{"indexed":false,"internalType":"uint256","name":"tokenGetAmount","type":"uint256"},{"indexed":false,"internalType":"uint256","name":"token1Balance","type":"uint256"},{"indexed":false,"internalType":"uint256","name":"token2Balance","type":"uint256"},{"indexed":false,"internalType":"uint256","name":"timestamp","type":"uint256"}],"name":"Swap","type":"event"},{"inputs":[],"name":"K","outputs":[{"internalType":"uint256","name":"","type":"uint256"}],"stateMutability":"view","type":"function"},{"inputs":[{"internalType":"uint256","name":"_token1Amount","type":"uint256"},{"internalType":"uint256","name":"_token2Amount","type":"uint256"}],"name":"addLiquidity","outputs":[],"stateMutability":"nonpayable","type":"function"},{"inputs":[{"internalType":"uint256","name":"_token2Amount","type":"uint256"}],"name":"calculateToken1Deposit","outputs":[{"internalType":"uint256","name":"token1Amount","type":"uint256"}],"stateMutability":"view","type":"function"},{"inputs":[{"internalType":"uint256","name":"_token1Amount","type":"uint256"}],"name":"calculateToken1Swap","outputs":[{"internalType":"uint256","name":"token2Amount","type":"uint256"}],"stateMutability":"view","type":"function"},{"inputs":[{"internalType":"uint256","name":"_token1Amount","type":"uint256"}],"name":"calculateToken2Deposit","outputs":[{"internalType":"uint256","name":"token2Amount","type":"uint256"}],"stateMutability":"view","type":"function"},{"inputs":[{"internalType":"uint256","name":"_token2Amount","type":"uint256"}],"name":"calculateToken2Swap","outputs":[{"internalType":"uint256","name":"token1Amount","type":"uint256"}],"stateMutability":"view","type":"function"},{"inputs":[{"internalType":"uint256","name":"_share","type":"uint256"}],"name":"calculateWithdrawAmount","outputs":[{"internalType":"uint256","name":"token1Amount","type":"uint256"},{"internalType":"uint256","name":"token2Amount","type":"uint256"}],"stateMutability":"view","type":"function"},{"inputs":[{"internalType":"uint256","name":"_share","type":"uint256"}],"name":"removeLiquidity","outputs":[{"internalType":"uint256","name":"token1Amount","type":"uint256"},{"internalType":"uint256","name":"token2Amount","type":"uint256"}],"stateMutability":"nonpayable","type":"function"},{"inputs":[{"internalType":"address","name":"","type":"address"}],"name":"shares","outputs":[{"internalType":"uint256","name":"","type":"uint256"}],"stateMutability":"view","type":"function"},{"inputs":[{"internalType":"uint256","name":"_token1Amount","type":"uint256"}],"name":"swapToken1","outputs":[{"internalType":"uint256","name":"token2Amount","type":"uint256"}],"stateMutability":"nonpayable","type":"function"},{"inputs":[{"internalType":"uint256","name":"_token2Amount","type":"uint256"}],"name":"swapToken2","outputs":[{"internalType":"uint256","name":"token1Amount","type":"uint256"}],"stateMutability":"nonpayable","type":"function"},{"inputs":[],"name":"token1","outputs":[{"internalType":"contract Token","name":"","type":"address"}],"stateMutability":"view","type":"function"},{"inputs":[],"name":"token1Balance","outputs":[{"internalType":"uint256","name":"","type":"uint256"}],"stateMutability":"view","type":"function"},{"inputs":[],"name":"token2","outputs":[{"internalType":"contract Token","name":"","type":"address"}],"stateMutability":"view","type":"function"},{"inputs":[],"name":"token2Balance","outputs":[{"internalType":"uint256","name":"","type":"uint256"}],"stateMutability":"view","type":"function"},{"inputs":[],"name":"totalShares","outputs":[{"internalType":"uint256","name":"","type":"uint256"}],"stateMutability":"view","type":"function"}],"evm":{"bytecode":{"linkReferences":{},"object":"60806040523480156200001157600080fd5b50604051620019eb380380620019eb83398181016040528101906200003791906200013e565b816000806101000a81548173ffffffffffffffffffffffffffffffffffffffff021916908373ffffffffffffffffffffffffffffffffffffffff16021790555080600160006101000a81548173ffffffffffffffffffffffffffffffffffffffff021916908373ffffffffffffffffffffffffffffffffffffffff160217905550505062000185565b600080fd5b600073ffffffffffffffffffffffffffffffffffffffff82169050919050565b6000620000f282620000c5565b9050919050565b60006200010682620000e5565b9050919050565b6200011881620000f9565b81146200012457600080fd5b50565b60008151905062000138816200010d565b92915050565b60008060408385031215620001585762000157620000c0565b5b6000620001688582860162000127565b92505060206200017b8582860162000127565b9150509250929050565b61185680620001956000396000f3fe608060405234801561001057600080fd5b50600436106101005760003560e01c8063b9ffa6a811610097578063de1b6d2a11610066578063de1b6d2a146102c6578063e682ca69146102f6578063f4cb34d414610326578063fde6c9fb1461035657610100565b8063b9ffa6a81461022a578063c5b38c0514610248578063ce7c2ac214610278578063d21220a7146102a857610100565b80639a5c77a8116100d35780639a5c77a81461018f5780639c8f9f23146101bf5780639cd441da146101f0578063a932492f1461020c57610100565b806325be124e146101055780633a98ef391461012357806368a455f114610141578063980d69d31461015f575b600080fd5b61010d610387565b60405161011a91906110f1565b60405180910390f35b61012b6103ad565b6040516101389190611125565b60405180910390f35b6101496103b3565b6040516101569190611125565b60405180910390f35b61017960048036038101906101749190611171565b6103b9565b6040516101869190611125565b60405180910390f35b6101a960048036038101906101a49190611171565b6105e8565b6040516101b69190611125565b60405180910390f35b6101d960048036038101906101d49190611171565b61060c565b6040516101e792919061119e565b60405180910390f35b61020a600480360381019061020591906111c7565b6108bc565b005b610214610c1e565b6040516102219190611125565b60405180910390f35b610232610c24565b60405161023f9190611125565b60405180910390f35b610262600480360381019061025d9190611171565b610c2a565b60405161026f9190611125565b60405180910390f35b610292600480360381019061028d9190611245565b610cc3565b60405161029f9190611125565b60405180910390f35b6102b0610cdb565b6040516102bd91906110f1565b60405180910390f35b6102e060048036038101906102db9190611171565b610cff565b6040516102ed9190611125565b60405180910390f35b610310600480360381019061030b9190611171565b610d23565b60405161031d9190611125565b60405180910390f35b610340600480360381019061033b9190611171565b610dbc565b60405161034d9190611125565b60405180910390f35b610370600480360381019061036b9190611171565b610feb565b60405161037e92919061119e565b60405180910390f35b600160009054906101000a900473ffffffffffffffffffffffffffffffffffffffff1681565b60055481565b60035481565b60006103c482610c2a565b9050600160009054906101000a900473ffffffffffffffffffffffffffffffffffffffff1673ffffffffffffffffffffffffffffffffffffffff166323b872dd3330856040518463ffffffff1660e01b815260040161042593929190611281565b602060405180830381600087803b15801561043f57600080fd5b505af1158015610453573d6000803e3d6000fd5b505050506040513d601f19601f8201168201806040525081019061047791906112f0565b50816003600082825461048a919061134c565b9250508190555080600260008282546104a391906113a2565b9250508190555060008054906101000a900473ffffffffffffffffffffffffffffffffffffffff1673ffffffffffffffffffffffffffffffffffffffff1663a9059cbb33836040518363ffffffff1660e01b81526004016105059291906113d6565b602060405180830381600087803b15801561051f57600080fd5b505af1158015610533573d6000803e3d6000fd5b505050506040513d601f19601f8201168201806040525081019061055791906112f0565b507f31c309ecd457dce7604a286d63a4b470e321337fb9877ce63c1109e1003c89f633600160009054906101000a900473ffffffffffffffffffffffffffffffffffffffff168460008054906101000a900473ffffffffffffffffffffffffffffffffffffffff1685600254600354426040516105db9897969594939291906113ff565b60405180910390a1919050565b6000600254826003546105fb919061147d565b6106059190611506565b9050919050565b600080600660003373ffffffffffffffffffffffffffffffffffffffff1673ffffffffffffffffffffffffffffffffffffffff16815260200190815260200160002054831115610691576040517f08c379a0000000000000000000000000000000000000000000000000000000008152600401610688906115ba565b60405180910390fd5b61069a83610feb565b809250819350505082600660003373ffffffffffffffffffffffffffffffffffffffff1673ffffffffffffffffffffffffffffffffffffffff16815260200190815260200160002060008282546106f191906113a2565b92505081905550826005600082825461070a91906113a2565b92505081905550816002600082825461072391906113a2565b92505081905550806003600082825461073c91906113a2565b92505081905550600354600254610753919061147d565b60048190555060008054906101000a900473ffffffffffffffffffffffffffffffffffffffff1673ffffffffffffffffffffffffffffffffffffffff1663a9059cbb33846040518363ffffffff1660e01b81526004016107b49291906113d6565b602060405180830381600087803b1580156107ce57600080fd5b505af11580156107e2573d6000803e3d6000fd5b505050506040513d601f19601f8201168201806040525081019061080691906112f0565b50600160009054906101000a900473ffffffffffffffffffffffffffffffffffffffff1673ffffffffffffffffffffffffffffffffffffffff1663a9059cbb33836040518363ffffffff1660e01b81526004016108649291906113d6565b602060405180830381600087803b15801561087e57600080fd5b505af1158015610892573d6000803e3d6000fd5b505050506040513d601f19601f820116820180604052508101906108b691906112f0565b50915091565b60008054906101000a900473ffffffffffffffffffffffffffffffffffffffff1673ffffffffffffffffffffffffffffffffffffffff166323b872dd3330856040518463ffffffff1660e01b815260040161091993929190611281565b602060405180830381600087803b15801561093357600080fd5b505af1158015610947573d6000803e3d6000fd5b505050506040513d601f19601f8201168201806040525081019061096b91906112f0565b6109aa576040517f08c379a00000000000000000000000000000000000000000000000000000000081526004016109a190611626565b60405180910390fd5b600160009054906101000a900473ffffffffffffffffffffffffffffffffffffffff1673ffffffffffffffffffffffffffffffffffffffff166323b872dd3330846040518463ffffffff1660e01b8152600401610a0993929190611281565b602060405180830381600087803b158015610a2357600080fd5b505af1158015610a37573d6000803e3d6000fd5b505050506040513d601f19601f82011682018060405250810190610a5b91906112f0565b610a9a576040517f08c379a0000000000000000000000000000000000000000000000000000000008152600401610a9190611692565b60405180910390fd5b6000806005541415610ac257670de0b6b3a76400006064610abb919061147d565b9050610b62565b600060025484600554610ad5919061147d565b610adf9190611506565b9050600060035484600554610af4919061147d565b610afe9190611506565b90506103e881610b0e9190611506565b6103e883610b1c9190611506565b14610b5c576040517f08c379a0000000000000000000000000000000000000000000000000000000008152600401610b53906116fe565b60405180910390fd5b81925050505b8260026000828254610b74919061134c565b925050819055508160036000828254610b8d919061134c565b92505081905550600354600254610ba4919061147d565b6004819055508060056000828254610bbc919061134c565b9250508190555080600660003373ffffffffffffffffffffffffffffffffffffffff1673ffffffffffffffffffffffffffffffffffffffff1681526020019081526020016000206000828254610c12919061134c565b92505081905550505050565b60045481565b60025481565b60008082600354610c3b919061134c565b9050600081600454610c4d9190611506565b905080600254610c5d91906113a2565b9250600254831415610c78578280610c749061171e565b9350505b6002548310610cbc576040517f08c379a0000000000000000000000000000000000000000000000000000000008152600401610cb390611794565b60405180910390fd5b5050919050565b60066020528060005260406000206000915090505481565b60008054906101000a900473ffffffffffffffffffffffffffffffffffffffff1681565b600060035482600254610d12919061147d565b610d1c9190611506565b9050919050565b60008082600254610d34919061134c565b9050600081600454610d469190611506565b905080600354610d5691906113a2565b9250600354831415610d71578280610d6d9061171e565b9350505b6003548310610db5576040517f08c379a0000000000000000000000000000000000000000000000000000000008152600401610dac90611794565b60405180910390fd5b5050919050565b6000610dc782610d23565b905060008054906101000a900473ffffffffffffffffffffffffffffffffffffffff1673ffffffffffffffffffffffffffffffffffffffff166323b872dd3330856040518463ffffffff1660e01b8152600401610e2693929190611281565b602060405180830381600087803b158015610e4057600080fd5b505af1158015610e54573d6000803e3d6000fd5b505050506040513d601f19601f82011682018060405250810190610e7891906112f0565b508160026000828254610e8b919061134c565b925050819055508060036000828254610ea491906113a2565b92505081905550600160009054906101000a900473ffffffffffffffffffffffffffffffffffffffff1673ffffffffffffffffffffffffffffffffffffffff1663a9059cbb33836040518363ffffffff1660e01b8152600401610f089291906113d6565b602060405180830381600087803b158015610f2257600080fd5b505af1158015610f36573d6000803e3d6000fd5b505050506040513d601f19601f82011682018060405250810190610f5a91906112f0565b507f31c309ecd457dce7604a286d63a4b470e321337fb9877ce63c1109e1003c89f63360008054906101000a900473ffffffffffffffffffffffffffffffffffffffff1684600160009054906101000a900473ffffffffffffffffffffffffffffffffffffffff168560025460035442604051610fde9897969594939291906113ff565b60405180910390a1919050565b600080600554831115611033576040517f08c379a000000000000000000000000000000000000000000000000000000000815260040161102a90611800565b60405180910390fd5b60055460025484611044919061147d565b61104e9190611506565b915060055460035484611061919061147d565b61106b9190611506565b9050915091565b600073ffffffffffffffffffffffffffffffffffffffff82169050919050565b6000819050919050565b60006110b76110b26110ad84611072565b611092565b611072565b9050919050565b60006110c98261109c565b9050919050565b60006110db826110be565b9050919050565b6110eb816110d0565b82525050565b600060208201905061110660008301846110e2565b92915050565b6000819050919050565b61111f8161110c565b82525050565b600060208201905061113a6000830184611116565b92915050565b600080fd5b61114e8161110c565b811461115957600080fd5b50565b60008135905061116b81611145565b92915050565b60006020828403121561118757611186611140565b5b60006111958482850161115c565b91505092915050565b60006040820190506111b36000830185611116565b6111c06020830184611116565b9392505050565b600080604083850312156111de576111dd611140565b5b60006111ec8582860161115c565b92505060206111fd8582860161115c565b9150509250929050565b600061121282611072565b9050919050565b61122281611207565b811461122d57600080fd5b50565b60008135905061123f81611219565b92915050565b60006020828403121561125b5761125a611140565b5b600061126984828501611230565b91505092915050565b61127b81611207565b82525050565b60006060820190506112966000830186611272565b6112a36020830185611272565b6112b06040830184611116565b949350505050565b60008115159050919050565b6112cd816112b8565b81146112d857600080fd5b50565b6000815190506112ea816112c4565b92915050565b60006020828403121561130657611305611140565b5b6000611314848285016112db565b91505092915050565b7f4e487b7100000000000000000000000000000000000000000000000000000000600052601160045260246000fd5b60006113578261110c565b91506113628361110c565b9250827fffffffffffffffffffffffffffffffffffffffffffffffffffffffffffffffff038211156113975761139661131d565b5b828201905092915050565b60006113ad8261110c565b91506113b88361110c565b9250828210156113cb576113ca61131d565b5b828203905092915050565b60006040820190506113eb6000830185611272565b6113f86020830184611116565b9392505050565b600061010082019050611415600083018b611272565b611422602083018a611272565b61142f6040830189611116565b61143c6060830188611272565b6114496080830187611116565b61145660a0830186611116565b61146360c0830185611116565b61147060e0830184611116565b9998505050505050505050565b60006114888261110c565b91506114938361110c565b9250817fffffffffffffffffffffffffffffffffffffffffffffffffffffffffffffffff04831182151516156114cc576114cb61131d565b5b828202905092915050565b7f4e487b7100000000000000000000000000000000000000000000000000000000600052601260045260246000fd5b60006115118261110c565b915061151c8361110c565b92508261152c5761152b6114d7565b5b828204905092915050565b600082825260208201905092915050565b7f63616e6e6f74207769746864726177206d6f726520736861726573207468616e60008201527f20796f7520686176650000000000000000000000000000000000000000000000602082015250565b60006115a4602983611537565b91506115af82611548565b604082019050919050565b600060208201905081810360008301526115d381611597565b9050919050565b7f6661696c656420746f207472616e7366657220746f6b656e2031000000000000600082015250565b6000611610601a83611537565b915061161b826115da565b602082019050919050565b6000602082019050818103600083015261163f81611603565b9050919050565b7f6661696c656420746f207472616e7366657220746f6b656e2032000000000000600082015250565b600061167c601a83611537565b915061168782611646565b602082019050919050565b600060208201905081810360008301526116ab8161166f565b9050919050565b7f6d7573742070726f7669646520657175616c20746f6b656e20616d6f756e7473600082015250565b60006116e8602083611537565b91506116f3826116b2565b602082019050919050565b60006020820190508181036000830152611717816116db565b9050919050565b60006117298261110c565b9150600082141561173d5761173c61131d565b5b600182039050919050565b7f7377617020616d6f756e7420746f206c61726765000000000000000000000000600082015250565b600061177e601483611537565b915061178982611748565b602082019050919050565b600060208201905081810360008301526117ad81611771565b9050919050565b7f6d757374206265206c657373207468616e20746f74616c207368617265730000600082015250565b60006117ea601e83611537565b91506117f5826117b4565b602082019050919050565b60006020820190508181036000830152611819816117dd565b905091905056fea2646970667358221220545c7556d2636946016bdbef003a83b5402c55ffe2441d4d57ed82334ddf923264736f6c63430008090033","opcodes":"PUSH1 0x80 PUSH1 0x40 MSTORE CALLVALUE DUP1 ISZERO PUSH3 0x11 JUMPI PUSH1 0x0 DUP1 REVERT JUMPDEST POP PUSH1 0x40 MLOAD PUSH3 0x19EB CODESIZE SUB DUP1 PUSH3 0x19EB DUP4 CODECOPY DUP2 DUP2 ADD PUSH1 0x40 MSTORE DUP2 ADD SWAP1 PUSH3 0x37 SWAP2 SWAP1 PUSH3 0x13E JUMP JUMPDEST DUP2 PUSH1 0x0 DUP1 PUSH2 0x100 EXP DUP2 SLOAD DUP2 PUSH20 0xFFFFFFFFFFFFFFFFFFFFFFFFFFFFFFFFFFFFFFFF MUL NOT AND SWAP1 DUP4 PUSH20 0xFFFFFFFFFFFFFFFFFFFFFFFFFFFFFFFFFFFFFFFF AND MUL OR SWAP1 SSTORE POP DUP1 PUSH1 0x1 PUSH1 0x0 PUSH2 0x100 EXP DUP2 SLOAD DUP2 PUSH20 0xFFFFFFFFFFFFFFFFFFFFFFFFFFFFFFFFFFFFFFFF MUL NOT AND SWAP1 DUP4 PUSH20 0xFFFFFFFFFFFFFFFFFFFFFFFFFFFFFFFFFFFFFFFF AND MUL OR SWAP1 SSTORE POP POP POP PUSH3 0x185 JUMP JUMPDEST PUSH1 0x0 DUP1 REVERT JUMPDEST PUSH1 0x0 PUSH20 0xFFFFFFFFFFFFFFFFFFFFFFFFFFFFFFFFFFFFFFFF DUP3 AND SWAP1 POP SWAP2 SWAP1 POP JUMP JUMPDEST PUSH1 0x0 PUSH3 0xF2 DUP3 PUSH3 0xC5 JUMP JUMPDEST SWAP1 POP SWAP2 SWAP1 POP JUMP JUMPDEST PUSH1 0x0 PUSH3 0x106 DUP3 PUSH3 0xE5 JUMP JUMPDEST SWAP1 POP SWAP2 SWAP1 POP JUMP JUMPDEST PUSH3 0x118 DUP2 PUSH3 0xF9 JUMP JUMPDEST DUP2 EQ PUSH3 0x124 JUMPI PUSH1 0x0 DUP1 REVERT JUMPDEST POP JUMP JUMPDEST PUSH1 0x0 DUP2 MLOAD SWAP1 POP PUSH3 0x138 DUP2 PUSH3 0x10D JUMP JUMPDEST SWAP3 SWAP2 POP POP JUMP JUMPDEST PUSH1 0x0 DUP1 PUSH1 0x40 DUP4 DUP6 SUB SLT ISZERO PUSH3 0x158 JUMPI PUSH3 0x157 PUSH3 0xC0 JUMP JUMPDEST JUMPDEST PUSH1 0x0 PUSH3 0x168 DUP6 DUP3 DUP7 ADD PUSH3 0x127 JUMP JUMPDEST SWAP3 POP POP PUSH1 0x20 PUSH3 0x17B DUP6 DUP3 DUP7 ADD PUSH3 0x127 JUMP JUMPDEST SWAP2 POP POP SWAP3 POP SWAP3 SWAP1 POP JUMP JUMPDEST PUSH2 0x1856 DUP1 PUSH3 0x195 PUSH1 0x0 CODECOPY PUSH1 0x0 RETURN INVALID PUSH1 0x80 PUSH1 0x40 MSTORE CALLVALUE DUP1 ISZERO PUSH2 0x10 JUMPI PUSH1 0x0 DUP1 REVERT JUMPDEST POP PUSH1 0x4 CALLDATASIZE LT PUSH2 0x100 JUMPI PUSH1 0x0 CALLDATALOAD PUSH1 0xE0 SHR DUP1 PUSH4 0xB9FFA6A8 GT PUSH2 0x97 JUMPI DUP1 PUSH4 0xDE1B6D2A GT PUSH2 0x66 JUMPI DUP1 PUSH4 0xDE1B6D2A EQ PUSH2 0x2C6 JUMPI DUP1 PUSH4 0xE682CA69 EQ PUSH2 0x2F6 JUMPI DUP1 PUSH4 0xF4CB34D4 EQ PUSH2 0x326 JUMPI DUP1 PUSH4 0xFDE6C9FB EQ PUSH2 0x356 JUMPI PUSH2 0x100 JUMP JUMPDEST DUP1 PUSH4 0xB9FFA6A8 EQ PUSH2 0x22A JUMPI DUP1 PUSH4 0xC5B38C05 EQ PUSH2 0x248 JUMPI DUP1 PUSH4 0xCE7C2AC2 EQ PUSH2 0x278 JUMPI DUP1 PUSH4 0xD21220A7 EQ PUSH2 0x2A8 JUMPI PUSH2 0x100 JUMP JUMPDEST DUP1 PUSH4 0x9A5C77A8 GT PUSH2 0xD3 JUMPI DUP1 PUSH4 0x9A5C77A8 EQ PUSH2 0x18F JUMPI DUP1 PUSH4 0x9C8F9F23 EQ PUSH2 0x1BF JUMPI DUP1 PUSH4 0x9CD441DA EQ PUSH2 0x1F0 JUMPI DUP1 PUSH4 0xA932492F EQ PUSH2 0x20C JUMPI PUSH2 0x100 JUMP JUMPDEST DUP1 PUSH4 0x25BE124E EQ PUSH2 0x105 JUMPI DUP1 PUSH4 0x3A98EF39 EQ PUSH2 0x123 JUMPI DUP1 PUSH4 0x68A455F1 EQ PUSH2 0x141 JUMPI DUP1 PUSH4 0x980D69D3 EQ PUSH2 0x15F JUMPI JUMPDEST PUSH1 0x0 DUP1 REVERT JUMPDEST PUSH2 0x10D PUSH2 0x387 JUMP JUMPDEST PUSH1 0x40 MLOAD PUSH2 0x11A SWAP2 SWAP1 PUSH2 0x10F1 JUMP JUMPDEST PUSH1 0x40 MLOAD DUP1 SWAP2 SUB SWAP1 RETURN JUMPDEST PUSH2 0x12B PUSH2 0x3AD JUMP JUMPDEST PUSH1 0x40 MLOAD PUSH2 0x138 SWAP2 SWAP1 PUSH2 0x1125 JUMP JUMPDEST PUSH1 0x40 MLOAD DUP1 SWAP2 SUB SWAP1 RETURN JUMPDEST PUSH2 0x149 PUSH2 0x3B3 JUMP JUMPDEST PUSH1 0x40 MLOAD PUSH2 0x156 SWAP2 SWAP1 PUSH2 0x1125 JUMP JUMPDEST PUSH1 0x40 MLOAD DUP1 SWAP2 SUB SWAP1 RETURN JUMPDEST PUSH2 0x179 PUSH1 0x4 DUP1 CALLDATASIZE SUB DUP2 ADD SWAP1 PUSH2 0x174 SWAP2 SWAP1 PUSH2 0x1171 JUMP JUMPDEST PUSH2 0x3B9 JUMP JUMPDEST PUSH1 0x40 MLOAD PUSH2 0x186 SWAP2 SWAP1 PUSH2 0x1125 JUMP JUMPDEST PUSH1 0x40 MLOAD DUP1 SWAP2 SUB SWAP1 RETURN JUMPDEST PUSH2 0x1A9 PUSH1 0x4 DUP1 CALLDATASIZE SUB DUP2 ADD SWAP1 PUSH2 0x1A4 SWAP2 SWAP1 PUSH2 0x1171 JUMP JUMPDEST PUSH2 0x5E8 JUMP JUMPDEST PUSH1 0x40 MLOAD PUSH2 0x1B6 SWAP2 SWAP1 PUSH2 0x1125 JUMP JUMPDEST PUSH1 0x40 MLOAD DUP1 SWAP2 SUB SWAP1 RETURN JUMPDEST PUSH2 0x1D9 PUSH1 0x4 DUP1 CALLDATASIZE SUB DUP2 ADD SWAP1 PUSH2 0x1D4 SWAP2 SWAP1 PUSH2 0x1171 JUMP JUMPDEST PUSH2 0x60C JUMP JUMPDEST PUSH1 0x40 MLOAD PUSH2 0x1E7 SWAP3 SWAP2 SWAP1 PUSH2 0x119E JUMP JUMPDEST PUSH1 0x40 MLOAD DUP1 SWAP2 SUB SWAP1 RETURN JUMPDEST PUSH2 0x20A PUSH1 0x4 DUP1 CALLDATASIZE SUB DUP2 ADD SWAP1 PUSH2 0x205 SWAP2 SWAP1 PUSH2 0x11C7 JUMP JUMPDEST PUSH2 0x8BC JUMP JUMPDEST STOP JUMPDEST PUSH2 0x214 PUSH2 0xC1E JUMP JUMPDEST PUSH1 0x40 MLOAD PUSH2 0x221 SWAP2 SWAP1 PUSH2 0x1125 JUMP JUMPDEST PUSH1 0x40 MLOAD DUP1 SWAP2 SUB SWAP1 RETURN JUMPDEST PUSH2 0x232 PUSH2 0xC24 JUMP JUMPDEST PUSH1 0x40 MLOAD PUSH2 0x23F SWAP2 SWAP1 PUSH2 0x1125 JUMP JUMPDEST PUSH1 0x40 MLOAD DUP1 SWAP2 SUB SWAP1 RETURN JUMPDEST PUSH2 0x262 PUSH1 0x4 DUP1 CALLDATASIZE SUB DUP2 ADD SWAP1 PUSH2 0x25D SWAP2 SWAP1 PUSH2 0x1171 JUMP JUMPDEST PUSH2 0xC2A JUMP JUMPDEST PUSH1 0x40 MLOAD PUSH2 0x26F SWAP2 SWAP1 PUSH2 0x1125 JUMP JUMPDEST PUSH1 0x40 MLOAD DUP1 SWAP2 SUB SWAP1 RETURN JUMPDEST PUSH2 0x292 PUSH1 0x4 DUP1 CALLDATASIZE SUB DUP2 ADD SWAP1 PUSH2 0x28D SWAP2 SWAP1 PUSH2 0x1245 JUMP JUMPDEST PUSH2 0xCC3 JUMP JUMPDEST PUSH1 0x40 MLOAD PUSH2 0x29F SWAP2 SWAP1 PUSH2 0x1125 JUMP JUMPDEST PUSH1 0x40 MLOAD DUP1 SWAP2 SUB SWAP1 RETURN JUMPDEST PUSH2 0x2B0 PUSH2 0xCDB JUMP JUMPDEST PUSH1 0x40 MLOAD PUSH2 0x2BD SWAP2 SWAP1 PUSH2 0x10F1 JUMP JUMPDEST PUSH1 0x40 MLOAD DUP1 SWAP2 SUB SWAP1 RETURN JUMPDEST PUSH2 0x2E0 PUSH1 0x4 DUP1 CALLDATASIZE SUB DUP2 ADD SWAP1 PUSH2 0x2DB SWAP2 SWAP1 PUSH2 0x1171 JUMP JUMPDEST PUSH2 0xCFF JUMP JUMPDEST PUSH1 0x40 MLOAD PUSH2 0x2ED SWAP2 SWAP1 PUSH2 0x1125 JUMP JUMPDEST PUSH1 0x40 MLOAD DUP1 SWAP2 SUB SWAP1 RETURN JUMPDEST PUSH2 0x310 PUSH1 0x4 DUP1 CALLDATASIZE SUB DUP2 ADD SWAP1 PUSH2 0x30B SWAP2 SWAP1 PUSH2 0x1171 JUMP JUMPDEST PUSH2 0xD23 JUMP JUMPDEST PUSH1 0x40 MLOAD PUSH2 0x31D SWAP2 SWAP1 PUSH2 0x1125 JUMP JUMPDEST PUSH1 0x40 MLOAD DUP1 SWAP2 SUB SWAP1 RETURN JUMPDEST PUSH2 0x340 PUSH1 0x4 DUP1 CALLDATASIZE SUB DUP2 ADD SWAP1 PUSH2 0x33B SWAP2 SWAP1 PUSH2 0x1171 JUMP JUMPDEST PUSH2 0xDBC JUMP JUMPDEST PUSH1 0x40 MLOAD PUSH2 0x34D SWAP2 SWAP1 PUSH2 0x1125 JUMP JUMPDEST PUSH1 0x40 MLOAD DUP1 SWAP2 SUB SWAP1 RETURN JUMPDEST PUSH2 0x370 PUSH1 0x4 DUP1 CALLDATASIZE SUB DUP2 ADD SWAP1 PUSH2 0x36B SWAP2 SWAP1 PUSH2 0x1171 JUMP JUMPDEST PUSH2 0xFEB JUMP JUMPDEST PUSH1 0x40 MLOAD PUSH2 0x37E SWAP3 SWAP2 SWAP1 PUSH2 0x119E JUMP JUMPDEST PUSH1 0x40 MLOAD DUP1 SWAP2 SUB SWAP1 RETURN JUMPDEST PUSH1 0x1 PUSH1 0x0 SWAP1 SLOAD SWAP1 PUSH2 0x100 EXP SWAP1 DIV PUSH20 0xFFFFFFFFFFFFFFFFFFFFFFFFFFFFFFFFFFFFFFFF AND DUP2 JUMP JUMPDEST PUSH1 0x5 SLOAD DUP2 JUMP JUMPDEST PUSH1 0x3 SLOAD DUP2 JUMP JUMPDEST PUSH1 0x0 PUSH2 0x3C4 DUP3 PUSH2 0xC2A JUMP JUMPDEST SWAP1 POP PUSH1 0x1 PUSH1 0x0 SWAP1 SLOAD SWAP1 PUSH2 0x100 EXP SWAP1 DIV PUSH20 0xFFFFFFFFFFFFFFFFFFFFFFFFFFFFFFFFFFFFFFFF AND PUSH20 0xFFFFFFFFFFFFFFFFFFFFFFFFFFFFFFFFFFFFFFFF AND PUSH4 0x23B872DD CALLER ADDRESS DUP6 PUSH1 0x40 MLOAD DUP5 PUSH4 0xFFFFFFFF AND PUSH1 0xE0 SHL DUP2 MSTORE PUSH1 0x4 ADD PUSH2 0x425 SWAP4 SWAP3 SWAP2 SWAP1 PUSH2 0x1281 JUMP JUMPDEST PUSH1 0x20 PUSH1 0x40 MLOAD DUP1 DUP4 SUB DUP2 PUSH1 0x0 DUP8 DUP1 EXTCODESIZE ISZERO DUP1 ISZERO PUSH2 0x43F JUMPI PUSH1 0x0 DUP1 REVERT JUMPDEST POP GAS CALL ISZERO DUP1 ISZERO PUSH2 0x453 JUMPI RETURNDATASIZE PUSH1 0x0 DUP1 RETURNDATACOPY RETURNDATASIZE PUSH1 0x0 REVERT JUMPDEST POP POP POP POP PUSH1 0x40 MLOAD RETURNDATASIZE PUSH1 0x1F NOT PUSH1 0x1F DUP3 ADD AND DUP3 ADD DUP1 PUSH1 0x40 MSTORE POP DUP2 ADD SWAP1 PUSH2 0x477 SWAP2 SWAP1 PUSH2 0x12F0 JUMP JUMPDEST POP DUP2 PUSH1 0x3 PUSH1 0x0 DUP3 DUP3 SLOAD PUSH2 0x48A SWAP2 SWAP1 PUSH2 0x134C JUMP JUMPDEST SWAP3 POP POP DUP2 SWAP1 SSTORE POP DUP1 PUSH1 0x2 PUSH1 0x0 DUP3 DUP3 SLOAD PUSH2 0x4A3 SWAP2 SWAP1 PUSH2 0x13A2 JUMP JUMPDEST SWAP3 POP POP DUP2 SWAP1 SSTORE POP PUSH1 0x0 DUP1 SLOAD SWAP1 PUSH2 0x100 EXP SWAP1 DIV PUSH20 0xFFFFFFFFFFFFFFFFFFFFFFFFFFFFFFFFFFFFFFFF AND PUSH20 0xFFFFFFFFFFFFFFFFFFFFFFFFFFFFFFFFFFFFFFFF AND PUSH4 0xA9059CBB CALLER DUP4 PUSH1 0x40 MLOAD DUP4 PUSH4 0xFFFFFFFF AND PUSH1 0xE0 SHL DUP2 MSTORE PUSH1 0x4 ADD PUSH2 0x505 SWAP3 SWAP2 SWAP1 PUSH2 0x13D6 JUMP JUMPDEST PUSH1 0x20 PUSH1 0x40 MLOAD DUP1 DUP4 SUB DUP2 PUSH1 0x0 DUP8 DUP1 EXTCODESIZE ISZERO DUP1 ISZERO PUSH2 0x51F JUMPI PUSH1 0x0 DUP1 REVERT JUMPDEST POP GAS CALL ISZERO DUP1 ISZERO PUSH2 0x533 JUMPI RETURNDATASIZE PUSH1 0x0 DUP1 RETURNDATACOPY RETURNDATASIZE PUSH1 0x0 REVERT JUMPDEST POP POP POP POP PUSH1 0x40 MLOAD RETURNDATASIZE PUSH1 0x1F NOT PUSH1 0x1F DUP3 ADD AND DUP3 ADD DUP1 PUSH1 0x40 MSTORE POP DUP2 ADD SWAP1 PUSH2 0x557 SWAP2 SWAP1 PUSH2 0x12F0 JUMP JUMPDEST POP PUSH32 0x31C309ECD457DCE7604A286D63A4B470E321337FB9877CE63C1109E1003C89F6 CALLER PUSH1 0x1 PUSH1 0x0 SWAP1 SLOAD SWAP1 PUSH2 0x100 EXP SWAP1 DIV PUSH20 0xFFFFFFFFFFFFFFFFFFFFFFFFFFFFFFFFFFFFFFFF AND DUP5 PUSH1 0x0 DUP1 SLOAD SWAP1 PUSH2 0x100 EXP SWAP1 DIV PUSH20 0xFFFFFFFFFFFFFFFFFFFFFFFFFFFFFFFFFFFFFFFF AND DUP6 PUSH1 0x2 SLOAD PUSH1 0x3 SLOAD TIMESTAMP PUSH1 0x40 MLOAD PUSH2 0x5DB SWAP9 SWAP8 SWAP7 SWAP6 SWAP5 SWAP4 SWAP3 SWAP2 SWAP1 PUSH2 0x13FF JUMP JUMPDEST PUSH1 0x40 MLOAD DUP1 SWAP2 SUB SWAP1 LOG1 SWAP2 SWAP1 POP JUMP JUMPDEST PUSH1 0x0 PUSH1 0x2 SLOAD DUP3 PUSH1 0x3 SLOAD PUSH2 0x5FB SWAP2 SWAP1 PUSH2 0x147D JUMP JUMPDEST PUSH2 0x605 SWAP2 SWAP1 PUSH2 0x1506 JUMP JUMPDEST SWAP1 POP SWAP2 SWAP1 POP JUMP JUMPDEST PUSH1 0x0 DUP1 PUSH1 0x6 PUSH1 0x0 CALLER PUSH20 0xFFFFFFFFFFFFFFFFFFFFFFFFFFFFFFFFFFFFFFFF AND PUSH20 0xFFFFFFFFFFFFFFFFFFFFFFFFFFFFFFFFFFFFFFFF AND DUP2 MSTORE PUSH1 0x20 ADD SWAP1 DUP2 MSTORE PUSH1 0x20 ADD PUSH1 0x0 KECCAK256 SLOAD DUP4 GT ISZERO PUSH2 0x691 JUMPI PUSH1 0x40 MLOAD PUSH32 0x8C379A000000000000000000000000000000000000000000000000000000000 DUP2 MSTORE PUSH1 0x4 ADD PUSH2 0x688 SWAP1 PUSH2 0x15BA JUMP JUMPDEST PUSH1 0x40 MLOAD DUP1 SWAP2 SUB SWAP1 REVERT JUMPDEST PUSH2 0x69A DUP4 PUSH2 0xFEB JUMP JUMPDEST DUP1 SWAP3 POP DUP2 SWAP4 POP POP POP DUP3 PUSH1 0x6 PUSH1 0x0 CALLER PUSH20 0xFFFFFFFFFFFFFFFFFFFFFFFFFFFFFFFFFFFFFFFF AND PUSH20 0xFFFFFFFFFFFFFFFFFFFFFFFFFFFFFFFFFFFFFFFF AND DUP2 MSTORE PUSH1 0x20 ADD SWAP1 DUP2 MSTORE PUSH1 0x20 ADD PUSH1 0x0 KECCAK256 PUSH1 0x0 DUP3 DUP3 SLOAD PUSH2 0x6F1 SWAP2 SWAP1 PUSH2 0x13A2 JUMP JUMPDEST SWAP3 POP POP DUP2 SWAP1 SSTORE POP DUP3 PUSH1 0x5 PUSH1 0x0 DUP3 DUP3 SLOAD PUSH2 0x70A SWAP2 SWAP1 PUSH2 0x13A2 JUMP JUMPDEST SWAP3 POP POP DUP2 SWAP1 SSTORE POP DUP2 PUSH1 0x2 PUSH1 0x0 DUP3 DUP3 SLOAD PUSH2 0x723 SWAP2 SWAP1 PUSH2 0x13A2 JUMP JUMPDEST SWAP3 POP POP DUP2 SWAP1 SSTORE POP DUP1 PUSH1 0x3 PUSH1 0x0 DUP3 DUP3 SLOAD PUSH2 0x73C SWAP2 SWAP1 PUSH2 0x13A2 JUMP JUMPDEST SWAP3 POP POP DUP2 SWAP1 SSTORE POP PUSH1 0x3 SLOAD PUSH1 0x2 SLOAD PUSH2 0x753 SWAP2 SWAP1 PUSH2 0x147D JUMP JUMPDEST PUSH1 0x4 DUP2 SWAP1 SSTORE POP PUSH1 0x0 DUP1 SLOAD SWAP1 PUSH2 0x100 EXP SWAP1 DIV PUSH20 0xFFFFFFFFFFFFFFFFFFFFFFFFFFFFFFFFFFFFFFFF AND PUSH20 0xFFFFFFFFFFFFFFFFFFFFFFFFFFFFFFFFFFFFFFFF AND PUSH4 0xA9059CBB CALLER DUP5 PUSH1 0x40 MLOAD DUP4 PUSH4 0xFFFFFFFF AND PUSH1 0xE0 SHL DUP2 MSTORE PUSH1 0x4 ADD PUSH2 0x7B4 SWAP3 SWAP2 SWAP1 PUSH2 0x13D6 JUMP JUMPDEST PUSH1 0x20 PUSH1 0x40 MLOAD DUP1 DUP4 SUB DUP2 PUSH1 0x0 DUP8 DUP1 EXTCODESIZE ISZERO DUP1 ISZERO PUSH2 0x7CE JUMPI PUSH1 0x0 DUP1 REVERT JUMPDEST POP GAS CALL ISZERO DUP1 ISZERO PUSH2 0x7E2 JUMPI RETURNDATASIZE PUSH1 0x0 DUP1 RETURNDATACOPY RETURNDATASIZE PUSH1 0x0 REVERT JUMPDEST POP POP POP POP PUSH1 0x40 MLOAD RETURNDATASIZE PUSH1 0x1F NOT PUSH1 0x1F DUP3 ADD AND DUP3 ADD DUP1 PUSH1 0x40 MSTORE POP DUP2 ADD SWAP1 PUSH2 0x806 SWAP2 SWAP1 PUSH2 0x12F0 JUMP JUMPDEST POP PUSH1 0x1 PUSH1 0x0 SWAP1 SLOAD SWAP1 PUSH2 0x100 EXP SWAP1 DIV PUSH20 0xFFFFFFFFFFFFFFFFFFFFFFFFFFFFFFFFFFFFFFFF AND PUSH20 0xFFFFFFFFFFFFFFFFFFFFFFFFFFFFFFFFFFFFFFFF AND PUSH4 0xA9059CBB CALLER DUP4 PUSH1 0x40 MLOAD DUP4 PUSH4 0xFFFFFFFF AND PUSH1 0xE0 SHL DUP2 MSTORE PUSH1 0x4 ADD PUSH2 0x864 SWAP3 SWAP2 SWAP1 PUSH2 0x13D6 JUMP JUMPDEST PUSH1 0x20 PUSH1 0x40 MLOAD DUP1 DUP4 SUB DUP2 PUSH1 0x0 DUP8 DUP1 EXTCODESIZE ISZERO DUP1 ISZERO PUSH2 0x87E JUMPI PUSH1 0x0 DUP1 REVERT JUMPDEST POP GAS CALL ISZERO DUP1 ISZERO PUSH2 0x892 JUMPI RETURNDATASIZE PUSH1 0x0 DUP1 RETURNDATACOPY RETURNDATASIZE PUSH1 0x0 REVERT JUMPDEST POP POP POP POP PUSH1 0x40 MLOAD RETURNDATASIZE PUSH1 0x1F NOT PUSH1 0x1F DUP3 ADD AND DUP3 ADD DUP1 PUSH1 0x40 MSTORE POP DUP2 ADD SWAP1 PUSH2 0x8B6 SWAP2 SWAP1 PUSH2 0x12F0 JUMP JUMPDEST POP SWAP2 POP SWAP2 JUMP JUMPDEST PUSH1 0x0 DUP1 SLOAD SWAP1 PUSH2 0x100 EXP SWAP1 DIV PUSH20 0xFFFFFFFFFFFFFFFFFFFFFFFFFFFFFFFFFFFFFFFF AND PUSH20 0xFFFFFFFFFFFFFFFFFFFFFFFFFFFFFFFFFFFFFFFF AND PUSH4 0x23B872DD CALLER ADDRESS DUP6 PUSH1 0x40 MLOAD DUP5 PUSH4 0xFFFFFFFF AND PUSH1 0xE0 SHL DUP2 MSTORE PUSH1 0x4 ADD PUSH2 0x919 SWAP4 SWAP3 SWAP2 SWAP1 PUSH2 0x1281 JUMP JUMPDEST PUSH1 0x20 PUSH1 0x40 MLOAD DUP1 DUP4 SUB DUP2 PUSH1 0x0 DUP8 DUP1 EXTCODESIZE ISZERO DUP1 ISZERO PUSH2 0x933 JUMPI PUSH1 0x0 DUP1 REVERT JUMPDEST POP GAS CALL ISZERO DUP1 ISZERO PUSH2 0x947 JUMPI RETURNDATASIZE PUSH1 0x0 DUP1 RETURNDATACOPY RETURNDATASIZE PUSH1 0x0 REVERT JUMPDEST POP POP POP POP PUSH1 0x40 MLOAD RETURNDATASIZE PUSH1 0x1F NOT PUSH1 0x1F DUP3 ADD AND DUP3 ADD DUP1 PUSH1 0x40 MSTORE POP DUP2 ADD SWAP1 PUSH2 0x96B SWAP2 SWAP1 PUSH2 0x12F0 JUMP JUMPDEST PUSH2 0x9AA JUMPI PUSH1 0x40 MLOAD PUSH32 0x8C379A000000000000000000000000000000000000000000000000000000000 DUP2 MSTORE PUSH1 0x4 ADD PUSH2 0x9A1 SWAP1 PUSH2 0x1626 JUMP JUMPDEST PUSH1 0x40 MLOAD DUP1 SWAP2 SUB SWAP1 REVERT JUMPDEST PUSH1 0x1 PUSH1 0x0 SWAP1 SLOAD SWAP1 PUSH2 0x100 EXP SWAP1 DIV PUSH20 0xFFFFFFFFFFFFFFFFFFFFFFFFFFFFFFFFFFFFFFFF AND PUSH20 0xFFFFFFFFFFFFFFFFFFFFFFFFFFFFFFFFFFFFFFFF AND PUSH4 0x23B872DD CALLER ADDRESS DUP5 PUSH1 0x40 MLOAD DUP5 PUSH4 0xFFFFFFFF AND PUSH1 0xE0 SHL DUP2 MSTORE PUSH1 0x4 ADD PUSH2 0xA09 SWAP4 SWAP3 SWAP2 SWAP1 PUSH2 0x1281 JUMP JUMPDEST PUSH1 0x20 PUSH1 0x40 MLOAD DUP1 DUP4 SUB DUP2 PUSH1 0x0 DUP8 DUP1 EXTCODESIZE ISZERO DUP1 ISZERO PUSH2 0xA23 JUMPI PUSH1 0x0 DUP1 REVERT JUMPDEST POP GAS CALL ISZERO DUP1 ISZERO PUSH2 0xA37 JUMPI RETURNDATASIZE PUSH1 0x0 DUP1 RETURNDATACOPY RETURNDATASIZE PUSH1 0x0 REVERT JUMPDEST POP POP POP POP PUSH1 0x40 MLOAD RETURNDATASIZE PUSH1 0x1F NOT PUSH1 0x1F DUP3 ADD AND DUP3 ADD DUP1 PUSH1 0x40 MSTORE POP DUP2 ADD SWAP1 PUSH2 0xA5B SWAP2 SWAP1 PUSH2 0x12F0 JUMP JUMPDEST PUSH2 0xA9A JUMPI PUSH1 0x40 MLOAD PUSH32 0x8C379A000000000000000000000000000000000000000000000000000000000 DUP2 MSTORE PUSH1 0x4 ADD PUSH2 0xA91 SWAP1 PUSH2 0x1692 JUMP JUMPDEST PUSH1 0x40 MLOAD DUP1 SWAP2 SUB SWAP1 REVERT JUMPDEST PUSH1 0x0 DUP1 PUSH1 0x5 SLOAD EQ ISZERO PUSH2 0xAC2 JUMPI PUSH8 0xDE0B6B3A7640000 PUSH1 0x64 PUSH2 0xABB SWAP2 SWAP1 PUSH2 0x147D JUMP JUMPDEST SWAP1 POP PUSH2 0xB62 JUMP JUMPDEST PUSH1 0x0 PUSH1 0x2 SLOAD DUP5 PUSH1 0x5 SLOAD PUSH2 0xAD5 SWAP2 SWAP1 PUSH2 0x147D JUMP JUMPDEST PUSH2 0xADF SWAP2 SWAP1 PUSH2 0x1506 JUMP JUMPDEST SWAP1 POP PUSH1 0x0 PUSH1 0x3 SLOAD DUP5 PUSH1 0x5 SLOAD PUSH2 0xAF4 SWAP2 SWAP1 PUSH2 0x147D JUMP JUMPDEST PUSH2 0xAFE SWAP2 SWAP1 PUSH2 0x1506 JUMP JUMPDEST SWAP1 POP PUSH2 0x3E8 DUP2 PUSH2 0xB0E SWAP2 SWAP1 PUSH2 0x1506 JUMP JUMPDEST PUSH2 0x3E8 DUP4 PUSH2 0xB1C SWAP2 SWAP1 PUSH2 0x1506 JUMP JUMPDEST EQ PUSH2 0xB5C JUMPI PUSH1 0x40 MLOAD PUSH32 0x8C379A000000000000000000000000000000000000000000000000000000000 DUP2 MSTORE PUSH1 0x4 ADD PUSH2 0xB53 SWAP1 PUSH2 0x16FE JUMP JUMPDEST PUSH1 0x40 MLOAD DUP1 SWAP2 SUB SWAP1 REVERT JUMPDEST DUP2 SWAP3 POP POP POP JUMPDEST DUP3 PUSH1 0x2 PUSH1 0x0 DUP3 DUP3 SLOAD PUSH2 0xB74 SWAP2 SWAP1 PUSH2 0x134C JUMP JUMPDEST SWAP3 POP POP DUP2 SWAP1 SSTORE POP DUP2 PUSH1 0x3 PUSH1 0x0 DUP3 DUP3 SLOAD PUSH2 0xB8D SWAP2 SWAP1 PUSH2 0x134C JUMP JUMPDEST SWAP3 POP POP DUP2 SWAP1 SSTORE POP PUSH1 0x3 SLOAD PUSH1 0x2 SLOAD PUSH2 0xBA4 SWAP2 SWAP1 PUSH2 0x147D JUMP JUMPDEST PUSH1 0x4 DUP2 SWAP1 SSTORE POP DUP1 PUSH1 0x5 PUSH1 0x0 DUP3 DUP3 SLOAD PUSH2 0xBBC SWAP2 SWAP1 PUSH2 0x134C JUMP JUMPDEST SWAP3 POP POP DUP2 SWAP1 SSTORE POP DUP1 PUSH1 0x6 PUSH1 0x0 CALLER PUSH20 0xFFFFFFFFFFFFFFFFFFFFFFFFFFFFFFFFFFFFFFFF AND PUSH20 0xFFFFFFFFFFFFFFFFFFFFFFFFFFFFFFFFFFFFFFFF AND DUP2 MSTORE PUSH1 0x20 ADD SWAP1 DUP2 MSTORE PUSH1 0x20 ADD PUSH1 0x0 KECCAK256 PUSH1 0x0 DUP3 DUP3 SLOAD PUSH2 0xC12 SWAP2 SWAP1 PUSH2 0x134C JUMP JUMPDEST SWAP3 POP POP DUP2 SWAP1 SSTORE POP POP POP POP JUMP JUMPDEST PUSH1 0x4 SLOAD DUP2 JUMP JUMPDEST PUSH1 0x2 SLOAD DUP2 JUMP JUMPDEST PUSH1 0x0 DUP1 DUP3 PUSH1 0x3 SLOAD PUSH2 0xC3B SWAP2 SWAP1 PUSH2 0x134C JUMP JUMPDEST SWAP1 POP PUSH1 0x0 DUP2 PUSH1 0x4 SLOAD PUSH2 0xC4D SWAP2 SWAP1 PUSH2 0x1506 JUMP JUMPDEST SWAP1 POP DUP1 PUSH1 0x2 SLOAD PUSH2 0xC5D SWAP2 SWAP1 PUSH2 0x13A2 JUMP JUMPDEST SWAP3 POP PUSH1 0x2 SLOAD DUP4 EQ ISZERO PUSH2 0xC78 JUMPI DUP3 DUP1 PUSH2 0xC74 SWAP1 PUSH2 0x171E JUMP JUMPDEST SWAP4 POP POP JUMPDEST PUSH1 0x2 SLOAD DUP4 LT PUSH2 0xCBC JUMPI PUSH1 0x40 MLOAD PUSH32 0x8C379A000000000000000000000000000000000000000000000000000000000 DUP2 MSTORE PUSH1 0x4 ADD PUSH2 0xCB3 SWAP1 PUSH2 0x1794 JUMP JUMPDEST PUSH1 0x40 MLOAD DUP1 SWAP2 SUB SWAP1 REVERT JUMPDEST POP POP SWAP2 SWAP1 POP JUMP JUMPDEST PUSH1 0x6 PUSH1 0x20 MSTORE DUP1 PUSH1 0x0 MSTORE PUSH1 0x40 PUSH1 0x0 KECCAK256 PUSH1 0x0 SWAP2 POP SWAP1 POP SLOAD DUP2 JUMP JUMPDEST PUSH1 0x0 DUP1 SLOAD SWAP1 PUSH2 0x100 EXP SWAP1 DIV PUSH20 0xFFFFFFFFFFFFFFFFFFFFFFFFFFFFFFFFFFFFFFFF AND DUP2 JUMP JUMPDEST PUSH1 0x0 PUSH1 0x3 SLOAD DUP3 PUSH1 0x2 SLOAD PUSH2 0xD12 SWAP2 SWAP1 PUSH2 0x147D JUMP JUMPDEST PUSH2 0xD1C SWAP2 SWAP1 PUSH2 0x1506 JUMP JUMPDEST SWAP1 POP SWAP2 SWAP1 POP JUMP JUMPDEST PUSH1 0x0 DUP1 DUP3 PUSH1 0x2 SLOAD PUSH2 0xD34 SWAP2 SWAP1 PUSH2 0x134C JUMP JUMPDEST SWAP1 POP PUSH1 0x0 DUP2 PUSH1 0x4 SLOAD PUSH2 0xD46 SWAP2 SWAP1 PUSH2 0x1506 JUMP JUMPDEST SWAP1 POP DUP1 PUSH1 0x3 SLOAD PUSH2 0xD56 SWAP2 SWAP1 PUSH2 0x13A2 JUMP JUMPDEST SWAP3 POP PUSH1 0x3 SLOAD DUP4 EQ ISZERO PUSH2 0xD71 JUMPI DUP3 DUP1 PUSH2 0xD6D SWAP1 PUSH2 0x171E JUMP JUMPDEST SWAP4 POP POP JUMPDEST PUSH1 0x3 SLOAD DUP4 LT PUSH2 0xDB5 JUMPI PUSH1 0x40 MLOAD PUSH32 0x8C379A000000000000000000000000000000000000000000000000000000000 DUP2 MSTORE PUSH1 0x4 ADD PUSH2 0xDAC SWAP1 PUSH2 0x1794 JUMP JUMPDEST PUSH1 0x40 MLOAD DUP1 SWAP2 SUB SWAP1 REVERT JUMPDEST POP POP SWAP2 SWAP1 POP JUMP JUMPDEST PUSH1 0x0 PUSH2 0xDC7 DUP3 PUSH2 0xD23 JUMP JUMPDEST SWAP1 POP PUSH1 0x0 DUP1 SLOAD SWAP1 PUSH2 0x100 EXP SWAP1 DIV PUSH20 0xFFFFFFFFFFFFFFFFFFFFFFFFFFFFFFFFFFFFFFFF AND PUSH20 0xFFFFFFFFFFFFFFFFFFFFFFFFFFFFFFFFFFFFFFFF AND PUSH4 0x23B872DD CALLER ADDRESS DUP6 PUSH1 0x40 MLOAD DUP5 PUSH4 0xFFFFFFFF AND PUSH1 0xE0 SHL DUP2 MSTORE PUSH1 0x4 ADD PUSH2 0xE26 SWAP4 SWAP3 SWAP2 SWAP1 PUSH2 0x1281 JUMP JUMPDEST PUSH1 0x20 PUSH1 0x40 MLOAD DUP1 DUP4 SUB DUP2 PUSH1 0x0 DUP8 DUP1 EXTCODESIZE ISZERO DUP1 ISZERO PUSH2 0xE40 JUMPI PUSH1 0x0 DUP1 REVERT JUMPDEST POP GAS CALL ISZERO DUP1 ISZERO PUSH2 0xE54 JUMPI RETURNDATASIZE PUSH1 0x0 DUP1 RETURNDATACOPY RETURNDATASIZE PUSH1 0x0 REVERT JUMPDEST POP POP POP POP PUSH1 0x40 MLOAD RETURNDATASIZE PUSH1 0x1F NOT PUSH1 0x1F DUP3 ADD AND DUP3 ADD DUP1 PUSH1 0x40 MSTORE POP DUP2 ADD SWAP1 PUSH2 0xE78 SWAP2 SWAP1 PUSH2 0x12F0 JUMP JUMPDEST POP DUP2 PUSH1 0x2 PUSH1 0x0 DUP3 DUP3 SLOAD PUSH2 0xE8B SWAP2 SWAP1 PUSH2 0x134C JUMP JUMPDEST SWAP3 POP POP DUP2 SWAP1 SSTORE POP DUP1 PUSH1 0x3 PUSH1 0x0 DUP3 DUP3 SLOAD PUSH2 0xEA4 SWAP2 SWAP1 PUSH2 0x13A2 JUMP JUMPDEST SWAP3 POP POP DUP2 SWAP1 SSTORE POP PUSH1 0x1 PUSH1 0x0 SWAP1 SLOAD SWAP1 PUSH2 0x100 EXP SWAP1 DIV PUSH20 0xFFFFFFFFFFFFFFFFFFFFFFFFFFFFFFFFFFFFFFFF AND PUSH20 0xFFFFFFFFFFFFFFFFFFFFFFFFFFFFFFFFFFFFFFFF AND PUSH4 0xA9059CBB CALLER DUP4 PUSH1 0x40 MLOAD DUP4 PUSH4 0xFFFFFFFF AND PUSH1 0xE0 SHL DUP2 MSTORE PUSH1 0x4 ADD PUSH2 0xF08 SWAP3 SWAP2 SWAP1 PUSH2 0x13D6 JUMP JUMPDEST PUSH1 0x20 PUSH1 0x40 MLOAD DUP1 DUP4 SUB DUP2 PUSH1 0x0 DUP8 DUP1 EXTCODESIZE ISZERO DUP1 ISZERO PUSH2 0xF22 JUMPI PUSH1 0x0 DUP1 REVERT JUMPDEST POP GAS CALL ISZERO DUP1 ISZERO PUSH2 0xF36 JUMPI RETURNDATASIZE PUSH1 0x0 DUP1 RETURNDATACOPY RETURNDATASIZE PUSH1 0x0 REVERT JUMPDEST POP POP POP POP PUSH1 0x40 MLOAD RETURNDATASIZE PUSH1 0x1F NOT PUSH1 0x1F DUP3 ADD AND DUP3 ADD DUP1 PUSH1 0x40 MSTORE POP DUP2 ADD SWAP1 PUSH2 0xF5A SWAP2 SWAP1 PUSH2 0x12F0 JUMP JUMPDEST POP PUSH32 0x31C309ECD457DCE7604A286D63A4B470E321337FB9877CE63C1109E1003C89F6 CALLER PUSH1 0x0 DUP1 SLOAD SWAP1 PUSH2 0x100 EXP SWAP1 DIV PUSH20 0xFFFFFFFFFFFFFFFFFFFFFFFFFFFFFFFFFFFFFFFF AND DUP5 PUSH1 0x1 PUSH1 0x0 SWAP1 SLOAD SWAP1 PUSH2 0x100 EXP SWAP1 DIV PUSH20 0xFFFFFFFFFFFFFFFFFFFFFFFFFFFFFFFFFFFFFFFF AND DUP6 PUSH1 0x2 SLOAD PUSH1 0x3 SLOAD TIMESTAMP PUSH1 0x40 MLOAD PUSH2 0xFDE SWAP9 SWAP8 SWAP7 SWAP6 SWAP5 SWAP4 SWAP3 SWAP2 SWAP1 PUSH2 0x13FF JUMP JUMPDEST PUSH1 0x40 MLOAD DUP1 SWAP2 SUB SWAP1 LOG1 SWAP2 SWAP1 POP JUMP JUMPDEST PUSH1 0x0 DUP1 PUSH1 0x5 SLOAD DUP4 GT ISZERO PUSH2 0x1033 JUMPI PUSH1 0x40 MLOAD PUSH32 0x8C379A000000000000000000000000000000000000000000000000000000000 DUP2 MSTORE PUSH1 0x4 ADD PUSH2 0x102A SWAP1 PUSH2 0x1800 JUMP JUMPDEST PUSH1 0x40 MLOAD DUP1 SWAP2 SUB SWAP1 REVERT JUMPDEST PUSH1 0x5 SLOAD PUSH1 0x2 SLOAD DUP5 PUSH2 0x1044 SWAP2 SWAP1 PUSH2 0x147D JUMP JUMPDEST PUSH2 0x104E SWAP2 SWAP1 PUSH2 0x1506 JUMP JUMPDEST SWAP2 POP PUSH1 0x5 SLOAD PUSH1 0x3 SLOAD DUP5 PUSH2 0x1061 SWAP2 SWAP1 PUSH2 0x147D JUMP JUMPDEST PUSH2 0x106B SWAP2 SWAP1 PUSH2 0x1506 JUMP JUMPDEST SWAP1 POP SWAP2 POP SWAP2 JUMP JUMPDEST PUSH1 0x0 PUSH20 0xFFFFFFFFFFFFFFFFFFFFFFFFFFFFFFFFFFFFFFFF DUP3 AND SWAP1 POP SWAP2 SWAP1 POP JUMP JUMPDEST PUSH1 0x0 DUP2 SWAP1 POP SWAP2 SWAP1 POP JUMP JUMPDEST PUSH1 0x0 PUSH2 0x10B7 PUSH2 0x10B2 PUSH2 0x10AD DUP5 PUSH2 0x1072 JUMP JUMPDEST PUSH2 0x1092 JUMP JUMPDEST PUSH2 0x1072 JUMP JUMPDEST SWAP1 POP SWAP2 SWAP1 POP JUMP JUMPDEST PUSH1 0x0 PUSH2 0x10C9 DUP3 PUSH2 0x109C JUMP JUMPDEST SWAP1 POP SWAP2 SWAP1 POP JUMP JUMPDEST PUSH1 0x0 PUSH2 0x10DB DUP3 PUSH2 0x10BE JUMP JUMPDEST SWAP1 POP SWAP2 SWAP1 POP JUMP JUMPDEST PUSH2 0x10EB DUP2 PUSH2 0x10D0 JUMP JUMPDEST DUP3 MSTORE POP POP JUMP JUMPDEST PUSH1 0x0 PUSH1 0x20 DUP3 ADD SWAP1 POP PUSH2 0x1106 PUSH1 0x0 DUP4 ADD DUP5 PUSH2 0x10E2 JUMP JUMPDEST SWAP3 SWAP2 POP POP JUMP JUMPDEST PUSH1 0x0 DUP2 SWAP1 POP SWAP2 SWAP1 POP JUMP JUMPDEST PUSH2 0x111F DUP2 PUSH2 0x110C JUMP JUMPDEST DUP3 MSTORE POP POP JUMP JUMPDEST PUSH1 0x0 PUSH1 0x20 DUP3 ADD SWAP1 POP PUSH2 0x113A PUSH1 0x0 DUP4 ADD DUP5 PUSH2 0x1116 JUMP JUMPDEST SWAP3 SWAP2 POP POP JUMP JUMPDEST PUSH1 0x0 DUP1 REVERT JUMPDEST PUSH2 0x114E DUP2 PUSH2 0x110C JUMP JUMPDEST DUP2 EQ PUSH2 0x1159 JUMPI PUSH1 0x0 DUP1 REVERT JUMPDEST POP JUMP JUMPDEST PUSH1 0x0 DUP2 CALLDATALOAD SWAP1 POP PUSH2 0x116B DUP2 PUSH2 0x1145 JUMP JUMPDEST SWAP3 SWAP2 POP POP JUMP JUMPDEST PUSH1 0x0 PUSH1 0x20 DUP3 DUP5 SUB SLT ISZERO PUSH2 0x1187 JUMPI PUSH2 0x1186 PUSH2 0x1140 JUMP JUMPDEST JUMPDEST PUSH1 0x0 PUSH2 0x1195 DUP5 DUP3 DUP6 ADD PUSH2 0x115C JUMP JUMPDEST SWAP2 POP POP SWAP3 SWAP2 POP POP JUMP JUMPDEST PUSH1 0x0 PUSH1 0x40 DUP3 ADD SWAP1 POP PUSH2 0x11B3 PUSH1 0x0 DUP4 ADD DUP6 PUSH2 0x1116 JUMP JUMPDEST PUSH2 0x11C0 PUSH1 0x20 DUP4 ADD DUP5 PUSH2 0x1116 JUMP JUMPDEST SWAP4 SWAP3 POP POP POP JUMP JUMPDEST PUSH1 0x0 DUP1 PUSH1 0x40 DUP4 DUP6 SUB SLT ISZERO PUSH2 0x11DE JUMPI PUSH2 0x11DD PUSH2 0x1140 JUMP JUMPDEST JUMPDEST PUSH1 0x0 PUSH2 0x11EC DUP6 DUP3 DUP7 ADD PUSH2 0x115C JUMP JUMPDEST SWAP3 POP POP PUSH1 0x20 PUSH2 0x11FD DUP6 DUP3 DUP7 ADD PUSH2 0x115C JUMP JUMPDEST SWAP2 POP POP SWAP3 POP SWAP3 SWAP1 POP JUMP JUMPDEST PUSH1 0x0 PUSH2 0x1212 DUP3 PUSH2 0x1072 JUMP JUMPDEST SWAP1 POP SWAP2 SWAP1 POP JUMP JUMPDEST PUSH2 0x1222 DUP2 PUSH2 0x1207 JUMP JUMPDEST DUP2 EQ PUSH2 0x122D JUMPI PUSH1 0x0 DUP1 REVERT JUMPDEST POP JUMP JUMPDEST PUSH1 0x0 DUP2 CALLDATALOAD SWAP1 POP PUSH2 0x123F DUP2 PUSH2 0x1219 JUMP JUMPDEST SWAP3 SWAP2 POP POP JUMP JUMPDEST PUSH1 0x0 PUSH1 0x20 DUP3 DUP5 SUB SLT ISZERO PUSH2 0x125B JUMPI PUSH2 0x125A PUSH2 0x1140 JUMP JUMPDEST JUMPDEST PUSH1 0x0 PUSH2 0x1269 DUP5 DUP3 DUP6 ADD PUSH2 0x1230 JUMP JUMPDEST SWAP2 POP POP SWAP3 SWAP2 POP POP JUMP JUMPDEST PUSH2 0x127B DUP2 PUSH2 0x1207 JUMP JUMPDEST DUP3 MSTORE POP POP JUMP JUMPDEST PUSH1 0x0 PUSH1 0x60 DUP3 ADD SWAP1 POP PUSH2 0x1296 PUSH1 0x0 DUP4 ADD DUP7 PUSH2 0x1272 JUMP JUMPDEST PUSH2 0x12A3 PUSH1 0x20 DUP4 ADD DUP6 PUSH2 0x1272 JUMP JUMPDEST PUSH2 0x12B0 PUSH1 0x40 DUP4 ADD DUP5 PUSH2 0x1116 JUMP JUMPDEST SWAP5 SWAP4 POP POP POP POP JUMP JUMPDEST PUSH1 0x0 DUP2 ISZERO ISZERO SWAP1 POP SWAP2 SWAP1 POP JUMP JUMPDEST PUSH2 0x12CD DUP2 PUSH2 0x12B8 JUMP JUMPDEST DUP2 EQ PUSH2 0x12D8 JUMPI PUSH1 0x0 DUP1 REVERT JUMPDEST POP JUMP JUMPDEST PUSH1 0x0 DUP2 MLOAD SWAP1 POP PUSH2 0x12EA DUP2 PUSH2 0x12C4 JUMP JUMPDEST SWAP3 SWAP2 POP POP JUMP JUMPDEST PUSH1 0x0 PUSH1 0x20 DUP3 DUP5 SUB SLT ISZERO PUSH2 0x1306 JUMPI PUSH2 0x1305 PUSH2 0x1140 JUMP JUMPDEST JUMPDEST PUSH1 0x0 PUSH2 0x1314 DUP5 DUP3 DUP6 ADD PUSH2 0x12DB JUMP JUMPDEST SWAP2 POP POP SWAP3 SWAP2 POP POP JUMP JUMPDEST PUSH32 0x4E487B7100000000000000000000000000000000000000000000000000000000 PUSH1 0x0 MSTORE PUSH1 0x11 PUSH1 0x4 MSTORE PUSH1 0x24 PUSH1 0x0 REVERT JUMPDEST PUSH1 0x0 PUSH2 0x1357 DUP3 PUSH2 0x110C JUMP JUMPDEST SWAP2 POP PUSH2 0x1362 DUP4 PUSH2 0x110C JUMP JUMPDEST SWAP3 POP DUP3 PUSH32 0xFFFFFFFFFFFFFFFFFFFFFFFFFFFFFFFFFFFFFFFFFFFFFFFFFFFFFFFFFFFFFFFF SUB DUP3 GT ISZERO PUSH2 0x1397 JUMPI PUSH2 0x1396 PUSH2 0x131D JUMP JUMPDEST JUMPDEST DUP3 DUP3 ADD SWAP1 POP SWAP3 SWAP2 POP POP JUMP JUMPDEST PUSH1 0x0 PUSH2 0x13AD DUP3 PUSH2 0x110C JUMP JUMPDEST SWAP2 POP PUSH2 0x13B8 DUP4 PUSH2 0x110C JUMP JUMPDEST SWAP3 POP DUP3 DUP3 LT ISZERO PUSH2 0x13CB JUMPI PUSH2 0x13CA PUSH2 0x131D JUMP JUMPDEST JUMPDEST DUP3 DUP3 SUB SWAP1 POP SWAP3 SWAP2 POP POP JUMP JUMPDEST PUSH1 0x0 PUSH1 0x40 DUP3 ADD SWAP1 POP PUSH2 0x13EB PUSH1 0x0 DUP4 ADD DUP6 PUSH2 0x1272 JUMP JUMPDEST PUSH2 0x13F8 PUSH1 0x20 DUP4 ADD DUP5 PUSH2 0x1116 JUMP JUMPDEST SWAP4 SWAP3 POP POP POP JUMP JUMPDEST PUSH1 0x0 PUSH2 0x100 DUP3 ADD SWAP1 POP PUSH2 0x1415 PUSH1 0x0 DUP4 ADD DUP12 PUSH2 0x1272 JUMP JUMPDEST PUSH2 0x1422 PUSH1 0x20 DUP4 ADD DUP11 PUSH2 0x1272 JUMP JUMPDEST PUSH2 0x142F PUSH1 0x40 DUP4 ADD DUP10 PUSH2 0x1116 JUMP JUMPDEST PUSH2 0x143C PUSH1 0x60 DUP4 ADD DUP9 PUSH2 0x1272 JUMP JUMPDEST PUSH2 0x1449 PUSH1 0x80 DUP4 ADD DUP8 PUSH2 0x1116 JUMP JUMPDEST PUSH2 0x1456 PUSH1 0xA0 DUP4 ADD DUP7 PUSH2 0x1116 JUMP JUMPDEST PUSH2 0x1463 PUSH1 0xC0 DUP4 ADD DUP6 PUSH2 0x1116 JUMP JUMPDEST PUSH2 0x1470 PUSH1 0xE0 DUP4 ADD DUP5 PUSH2 0x1116 JUMP JUMPDEST SWAP10 SWAP9 POP POP POP POP POP POP POP POP POP JUMP JUMPDEST PUSH1 0x0 PUSH2 0x1488 DUP3 PUSH2 0x110C JUMP JUMPDEST SWAP2 POP PUSH2 0x1493 DUP4 PUSH2 0x110C JUMP JUMPDEST SWAP3 POP DUP2 PUSH32 0xFFFFFFFFFFFFFFFFFFFFFFFFFFFFFFFFFFFFFFFFFFFFFFFFFFFFFFFFFFFFFFFF DIV DUP4 GT DUP3 ISZERO ISZERO AND ISZERO PUSH2 0x14CC JUMPI PUSH2 0x14CB PUSH2 0x131D JUMP JUMPDEST JUMPDEST DUP3 DUP3 MUL SWAP1 POP SWAP3 SWAP2 POP POP JUMP JUMPDEST PUSH32 0x4E487B7100000000000000000000000000000000000000000000000000000000 PUSH1 0x0 MSTORE PUSH1 0x12 PUSH1 0x4 MSTORE PUSH1 0x24 PUSH1 0x0 REVERT JUMPDEST PUSH1 0x0 PUSH2 0x1511 DUP3 PUSH2 0x110C JUMP JUMPDEST SWAP2 POP PUSH2 0x151C DUP4 PUSH2 0x110C JUMP JUMPDEST SWAP3 POP DUP3 PUSH2 0x152C JUMPI PUSH2 0x152B PUSH2 0x14D7 JUMP JUMPDEST JUMPDEST DUP3 DUP3 DIV SWAP1 POP SWAP3 SWAP2 POP POP JUMP JUMPDEST PUSH1 0x0 DUP3 DUP3 MSTORE PUSH1 0x20 DUP3 ADD SWAP1 POP SWAP3 SWAP2 POP POP JUMP JUMPDEST PUSH32 0x63616E6E6F74207769746864726177206D6F726520736861726573207468616E PUSH1 0x0 DUP3 ADD MSTORE PUSH32 0x20796F7520686176650000000000000000000000000000000000000000000000 PUSH1 0x20 DUP3 ADD MSTORE POP JUMP JUMPDEST PUSH1 0x0 PUSH2 0x15A4 PUSH1 0x29 DUP4 PUSH2 0x1537 JUMP JUMPDEST SWAP2 POP PUSH2 0x15AF DUP3 PUSH2 0x1548 JUMP JUMPDEST PUSH1 0x40 DUP3 ADD SWAP1 POP SWAP2 SWAP1 POP JUMP JUMPDEST PUSH1 0x0 PUSH1 0x20 DUP3 ADD SWAP1 POP DUP2 DUP2 SUB PUSH1 0x0 DUP4 ADD MSTORE PUSH2 0x15D3 DUP2 PUSH2 0x1597 JUMP JUMPDEST SWAP1 POP SWAP2 SWAP1 POP JUMP JUMPDEST PUSH32 0x6661696C656420746F207472616E7366657220746F6B656E2031000000000000 PUSH1 0x0 DUP3 ADD MSTORE POP JUMP JUMPDEST PUSH1 0x0 PUSH2 0x1610 PUSH1 0x1A DUP4 PUSH2 0x1537 JUMP JUMPDEST SWAP2 POP PUSH2 0x161B DUP3 PUSH2 0x15DA JUMP JUMPDEST PUSH1 0x20 DUP3 ADD SWAP1 POP SWAP2 SWAP1 POP JUMP JUMPDEST PUSH1 0x0 PUSH1 0x20 DUP3 ADD SWAP1 POP DUP2 DUP2 SUB PUSH1 0x0 DUP4 ADD MSTORE PUSH2 0x163F DUP2 PUSH2 0x1603 JUMP JUMPDEST SWAP1 POP SWAP2 SWAP1 POP JUMP JUMPDEST PUSH32 0x6661696C656420746F207472616E7366657220746F6B656E2032000000000000 PUSH1 0x0 DUP3 ADD MSTORE POP JUMP JUMPDEST PUSH1 0x0 PUSH2 0x167C PUSH1 0x1A DUP4 PUSH2 0x1537 JUMP JUMPDEST SWAP2 POP PUSH2 0x1687 DUP3 PUSH2 0x1646 JUMP JUMPDEST PUSH1 0x20 DUP3 ADD SWAP1 POP SWAP2 SWAP1 POP JUMP JUMPDEST PUSH1 0x0 PUSH1 0x20 DUP3 ADD SWAP1 POP DUP2 DUP2 SUB PUSH1 0x0 DUP4 ADD MSTORE PUSH2 0x16AB DUP2 PUSH2 0x166F JUMP JUMPDEST SWAP1 POP SWAP2 SWAP1 POP JUMP JUMPDEST PUSH32 0x6D7573742070726F7669646520657175616C20746F6B656E20616D6F756E7473 PUSH1 0x0 DUP3 ADD MSTORE POP JUMP JUMPDEST PUSH1 0x0 PUSH2 0x16E8 PUSH1 0x20 DUP4 PUSH2 0x1537 JUMP JUMPDEST SWAP2 POP PUSH2 0x16F3 DUP3 PUSH2 0x16B2 JUMP JUMPDEST PUSH1 0x20 DUP3 ADD SWAP1 POP SWAP2 SWAP1 POP JUMP JUMPDEST PUSH1 0x0 PUSH1 0x20 DUP3 ADD SWAP1 POP DUP2 DUP2 SUB PUSH1 0x0 DUP4 ADD MSTORE PUSH2 0x1717 DUP2 PUSH2 0x16DB JUMP JUMPDEST SWAP1 POP SWAP2 SWAP1 POP JUMP JUMPDEST PUSH1 0x0 PUSH2 0x1729 DUP3 PUSH2 0x110C JUMP JUMPDEST SWAP2 POP PUSH1 0x0 DUP3 EQ ISZERO PUSH2 0x173D JUMPI PUSH2 0x173C PUSH2 0x131D JUMP JUMPDEST JUMPDEST PUSH1 0x1 DUP3 SUB SWAP1 POP SWAP2 SWAP1 POP JUMP JUMPDEST PUSH32 0x7377617020616D6F756E7420746F206C61726765000000000000000000000000 PUSH1 0x0 DUP3 ADD MSTORE POP JUMP JUMPDEST PUSH1 0x0 PUSH2 0x177E PUSH1 0x14 DUP4 PUSH2 0x1537 JUMP JUMPDEST SWAP2 POP PUSH2 0x1789 DUP3 PUSH2 0x1748 JUMP JUMPDEST PUSH1 0x20 DUP3 ADD SWAP1 POP SWAP2 SWAP1 POP JUMP JUMPDEST PUSH1 0x0 PUSH1 0x20 DUP3 ADD SWAP1 POP DUP2 DUP2 SUB PUSH1 0x0 DUP4 ADD MSTORE PUSH2 0x17AD DUP2 PUSH2 0x1771 JUMP JUMPDEST SWAP1 POP SWAP2 SWAP1 POP JUMP JUMPDEST PUSH32 0x6D757374206265206C657373207468616E20746F74616C207368617265730000 PUSH1 0x0 DUP3 ADD MSTORE POP JUMP JUMPDEST PUSH1 0x0 PUSH2 0x17EA PUSH1 0x1E DUP4 PUSH2 0x1537 JUMP JUMPDEST SWAP2 POP PUSH2 0x17F5 DUP3 PUSH2 0x17B4 JUMP JUMPDEST PUSH1 0x20 DUP3 ADD SWAP1 POP SWAP2 SWAP1 POP JUMP JUMPDEST PUSH1 0x0 PUSH1 0x20 DUP3 ADD SWAP1 POP DUP2 DUP2 SUB PUSH1 0x0 DUP4 ADD MSTORE PUSH2 0x1819 DUP2 PUSH2 0x17DD JUMP JUMPDEST SWAP1 POP SWAP2 SWAP1 POP JUMP INVALID LOG2 PUSH5 0x6970667358 0x22 SLT KECCAK256 SLOAD 0x5C PUSH22 0x56D2636946016BDBEF003A83B5402C55FFE2441D4D57 0xED DUP3 CALLER 0x4D 0xDF SWAP3 ORIGIN PUSH5 0x736F6C6343 STOP ADDMOD MULMOD STOP CALLER "},"methodIdentifiers":{"K()":"a932492f","addLiquidity(uint256,uint256)":"9cd441da","calculateToken1Deposit(uint256)":"de1b6d2a","calculateToken1Swap(uint256)":"e682ca69","calculateToken2Deposit(uint256)":"9a5c77a8","calculateToken2Swap(uint256)":"c5b38c05","calculateWithdrawAmount(uint256)":"fde6c9fb","removeLiquidity(uint256)":"9c8f9f23","shares(address)":"ce7c2ac2","swapToken1(uint256)":"f4cb34d4","swapToken2(uint256)":"980d69d3","token1()":"d21220a7","token1Balance()":"b9ffa6a8","token2()":"25be124e","token2Balance()":"68a455f1","totalShares()":"3a98ef39"}}}}}